:1000000045C000004BC0000049C0000047C00000D0
:1000100045C0000043C0000041C000003FC00000D8
:100020003DC000003BC0000039C0000037C00000E8
:1000300035C0000033C0000031C000002FC00000F8
:100040002DC000002BC0000029C0000027C0000008
:1000500025C0000023C0000021C000001FC0000018
:100060001DC000001BC0000019C0000017C0000028
:1000700015C0000013C0000011C000000FC0000038
:100080000DC000000BC0000009C0000011241FBEFD
:10009000CFEFD0E1DEBFCDBF49D058C1B1CFCF93B4
:1000A000DF931F92CDB7DEB79E012F5F3F4F41E038
:1000B00060E086E601D189818D3751F441E061E14C
:1000C00086E6DBD041E061E186E6D7D081E001C081
:1000D00080E00F90DF91CF910895CF93DF931F922F
:1000E000CDB7DEB79E012F5F3F4F41E069E086E666
:1000F000E3D089810F90DF91CF910895CF93DF9363
:1001000000D000D0CDB7DEB79E012F5F3F4F41E05A
:1001100063E086E6D1D069817A818B819C810F90E2
:100120000F900F900F90DF91CF91089580E88ABBD8
:1001300020E432E44FE050E060E072E18AE790E0D2
:100140002FD0ADDF8823A9F0DF9A2FEF89E698E161
:10015000215080409040E1F700C00000DF982FEF71
:1001600089E698E1215080409040E1F700C000000E
:1001700014C0DF9A2FEF83E294EF2150804090402B
:10018000E1F700C00000DF982FEF89E698E12150E9
:1001900080409040E1F700C000009FDFAFDFD1CF8B
:1001A000B3D0DA01C9014097A109B109B695A79565
:1001B000979587958093700010927100E4E7F0E0C6
:1001C000808184608083089584EA80937400E4E7EA
:1001D000F0E080818823ECF7089584E9809374002F
:1001E000E4E7F0E0808184FDFDCF08958093730003
:1001F00084E880937400E4E7F0E080818823ECF7E2
:1002000080917100887F883169F080917100887FCA
:10021000883251F090917100987F81E0903429F0FC
:1002200080E0089581E0089581E00895DC0166236F
:1002300031F0E4E7F0E090819064908305C0E4E75A
:10024000F0E090819F7B9083E4E7F0E090819068FC
:10025000908390819923ECF790917100987F983565
:1002600029F090917100987F903529F48091730066
:100270008C9381E0089580E008951F93CF93DF93DE
:10028000182FD62FC42FA0DF812F880FAFDF8D2F1F
:10029000ADDF8C2FABDF83EC99E00197F1F700C065
:1002A00000009BDF8BED95E00197F1F700C00000A7
:1002B000DF91CF911F910895FF920F931F93CF93DA
:1002C000DF93182FF62E042FE9017EDF110F812F07
:1002D0008DDF8F2D8BDF78DF81E0810F87DF0023BB
:1002E00069F0015010E00F5F1F4F0C0F1D1F61E000
:1002F000CE019CDF2196C017D107C9F7DF91CF91BE
:100300001F910F91FF900895A1E21A2EAA1BBB1B0B
:10031000FD010DC0AA1FBB1FEE1FFF1FA217B307D1
:10032000E407F50720F0A21BB30BE40BF50B661FE7
:10033000771F881F991F1A9469F7609570958095AB
:1003400090959B01AC01BD01CF010895F894FFCFBA
:00000001FF
