:1000000045C0000060C000005EC000005CC0000091
:100010005AC0000058C0000056C0000054C0000084
:1000200052C0000050C000004EC000004CC0000094
:100030004AC0000048C0000046C0000044C00000A4
:1000400042C0000040C000003EC000003CC00000B4
:100050003AC0000038C0000036C0000034C00000C4
:1000600032C0000030C000002EC000002CC00000D4
:100070002AC0000028C0000026C0000024C00000E4
:1000800022C0000020C000001EC0000011241FBEBE
:10009000CFEFD0E1DEBFCDBF11E0A0E0B1E0ECECEE
:1000A000FCE000E00BBF02C007900D92A630B10744
:1000B000D9F721E0A6E0B1E001C01D92A630B20759
:1000C000E1F767D101C69CCFCF93DF93FC01148287
:1000D0001382128211821082D79ADF988FE99CE8EE
:1000E0000197F1F700C00000DF9AD79895E89A953C
:1000F000F1F70000CF992DC085ED8A95F1F700004A
:10010000CF9B2AC0CF99FECFEF01359661E070E01A
:10011000DE01188227E030E0CF9BFECF90E59A9574
:10012000F1F7CF9B0AC08C91AB01022E02C0440FA5
:10013000551F0A94E2F7482B4C93CF99FECF2150DC
:10014000310950F72196EC17FD0711F781E090E097
:1001500005C080E090E002C080E090E0DF91CF91A8
:1001600008956623B9F0FC01615070E06F5F7F4F26
:10017000680F791F80E04CE8219198E0382F3227F2
:10018000869530FD842726959150C1F7E617F7072D
:1001900099F7089580E008957F928F929F92AF9291
:1001A000BF92CF92DF92EF92FF920F931F93CF9364
:1001B000DF937C016B015A01722E4801012B19F467
:1001C0000CECA7D30FC005E5A4D3E40188E0880EAA
:1001D000911C0991272DA501B601C7019AD3C81515
:1001E000D905B9F7DF91CF911F910F91FF90EF9053
:1001F000DF90CF90BF90AF909F908F907F900895A9
:10020000BF92CF92DF92EF92FF920F931F93CF9303
:10021000DF93EC017B016A01B22E13D3813061F0D0
:100220002B2DA601B701CE01B7DF04E42B2DA601CB
:10023000B701CE016ED380E0DF91CF911F910F9176
:10024000FF90EF90DF90CF90BF9008957F928F92B4
:100250009F92AF92BF92CF92DF92EF92FF920F9355
:100260001F93CF93DF936C015B014A01722EE9D299
:100270008130A9F1272DA401B501C6018DDF0EEB58
:10028000272DA401B501C60144D3E7018701075F0B
:100290001F4F272DA401B501C60192D38993C01722
:1002A000D107B9F7F70190818181892B9281892B40
:1002B0009381892B9481892B9581892B9681892B18
:1002C0009781892B49F068E0C7014BDFF7019085E2
:1002D000891304C080E003C083E001C082E0DF91A5
:1002E000CF911F910F91FF90EF90DF90CF90BF9033
:1002F000AF909F908F907F900895CF92DF92EF9272
:10030000FF920F931F93CF93DF93CDB7DEB729975B
:100310000FB6F894DEBF0FBECDBF6701FE01319668
:100320007F0194DF882321F0F601118210820BC037
:100330008A8190E0982F88272981820F911DF601EC
:100340009183808380E029960FB6F894DEBF0FBEBC
:10035000CDBFDF91CF911F910F91FF90EF90DF9074
:10036000CF900895CF93DF9300D0CDB7DEB79E0135
:100370002F5F3F4F42E063E086E661D1898190E0E4
:10038000982F88272A81822B0F900F90DF91CF9191
:100390000895EF92FF920F931F93CF93DF93CDB702
:1003A000DEB7A6970FB6F894DEBF0FBECDBF10E242
:1003B0001ABBDD9A2FEF80E792E0215080409040F9
:1003C000E1F700C00000DD98AFEFB0E722E0A150F8
:1003D000B0402040E1F700C0000023D3DD9A8FEF4A
:1003E00090E7A2E081509040A040E1F700C00000FB
:1003F000DD98BFEF20E782E0B15020408040E1F778
:1004000000C0000020EA36E841E050E060E072E120
:100410008AE790E0B0D0DD9A9FEFA0E7B2E091507C
:10042000A040B040E1F700C00000DD982FEF80E76A
:1004300092E0215080409040E1F700C0000089E147
:100440009FD1DD9AAFEFB0E722E0A150B04020404D
:10045000E1F700C00000DD988FEF90E7A2E0815047
:100460009040A040E1F700C00000BFEF24E38CE023
:10047000B15020408040E1F700C00000A2D1FE0151
:100480003596DF011D921A95E9F7DD9ABFEF20E757
:1004900082E0B15020408040E1F700C00000DD98CC
:1004A0009FEFA0E7B2E09150A040B040E1F700C05C
:1004B000000000E010E020E846E350E067E370E071
:1004C00088E390E09DDE2FEF80E792E021508040AE
:1004D0009040E1F700C00000DE0195967D0120E824
:1004E00046E350E067E370E088E390E006DF8111C7
:1004F00013C06DA17EA1072E000C880B990BD3D2DF
:1005000020E030E048EC50E45AD39AD264587A4E56
:100510007EA36DA37D836E8325DF9D8B8E8BCE01A5
:100520000196D2DD8A818F8B60E2CE0105964FD194
:10053000DD9ABFEF20E782E0B15020408040E1F734
:1005400000C00000DD989FEFA0E7B2E09150A0400E
:10055000B040E1F700C0000080E090E0A6960FB642
:10056000F894DEBF0FBECDBFDF91CF911F910F91E9
:10057000FF90EF90089586D3DA01C9014097A10951
:10058000B109B695A79597958795809370001092BD
:100590007100E4E7F0E0808184608083089584EA5C
:1005A00080937400E4E7F0E080818823ECF70895FD
:1005B0008093730084E880937400E4E7F0E0808126
:1005C0008823ECF780917100887F883169F08091F1
:1005D0007100887F883251F090917100987F81E09E
:1005E000903429F080E0089581E0089581E0089535
:1005F000DC01662331F0E4E7F0E0908190649083C1
:1006000005C0E4E7F0E090819F7B9083E4E7F0E0B1
:1006100090819068908390819923ECF7909171007C
:10062000987F983529F090917100987F903529F442
:10063000809173008C9381E0089580E00895FF928B
:100640000F931F93CF93DF93182FF62E042FE901FA
:10065000A6DF110F812FACDF8F2DAADFA0DF81E095
:10066000810FA6DF002369F0015010E00F5F1F4FDC
:100670000C0F1D1F61E0CE01BBDF2196C017D10713
:10068000C9F7DF91CF911F910F91FF90089587B324
:10069000816187BBBD98C09AC4980895DF92EF929C
:1006A000FF920F931F93CF93DF937B01C42FC098CA
:1006B000C2D1D82E8FEF8C0FCC2361F0E701082F29
:1006C00010E00F5F1F4F0E0D1F1D8991B4D1C01791
:1006D000D107D9F7C09A8D2DDF91CF911F910F913E
:1006E000FF90EF90DF900895C0988F71A4D18FEFA5
:1006F000A2D1C09A0895CF93DF93D62FC0988F715F
:10070000806299D1C82F8D2F96D1C09A8C2FDF91FE
:10071000CF9108958F718062C1CF0895C0988BD119
:10072000C09A0895CF93C498C5E66CE080E0E3DFFB
:1007300080E0DADF8C3049F0C150F9F08FEC97E0BF
:100740000197F1F700C00000F0CF60E081E0D3DF57
:1007500060E082E0D0DF63E083E0CDDF61E485E04C
:10076000CADF66E286E0C7DF6EE080E0C4DF80E0DB
:10077000BBDFC1E08E3009F0C0E08C2FCF9108952F
:10078000CF93C82F84DFCC23C1F0CCDF882349F07E
:100790008FE99FE00197F1F700C00000C49AC1E023
:1007A0000DC09FEF24E38CE0915020408040E1F7A2
:1007B00000C00000C15049F701C0C0E08C2FCF91AC
:1007C000089545E060E071E080E1A4CF08951F93B3
:1007D000CF93DF93EC01162FC49880E085DF682F5C
:1007E0006C7F80E088DF81EE99DF8FE19EE40197E6
:1007F000F1F700C00000412FBE0180EA4FDF412F1A
:10080000BE0180EA4BDF8FE19EE40197F1F700C063
:10081000000080E069DF682F626080E06CDFC49ACE
:100820008FE19EE40197F1F700C00000C49880E0DA
:100830005BDF682F6D7F80E05EDFDF91CF911F91DE
:100840000895CF93DF93DC01FB013FB78C91822B9E
:100850008C938081822B80839C91822F809598231A
:100860009C93CFEAD4E02197F1F700C0000090817B
:1008700089238083DAEBDA95F1F700C0EA018881F9
:10088000CFE8D1E02197F1F700C000009C91922BB6
:100890009C939081922B9083EFEAF4E03197F1F7EB
:1008A00000C000003FBF282381E009F480E0DF9111
:1008B000CF9108950F93FC019FB78081822B808395
:1008C000DB018C91822B8C938081322F3095832396
:1008D0008083002361F0B5E1BA95F1F700008081D3
:1008E000282B208385ED8A95F1F700000BC0A5ED3C
:1008F000AA95F1F700008081282B2083B5E0BA95F6
:10090000F1F700009FBF81E0011101C080E00F916D
:1009100008957F928F929F92AF92BF92CF92DF9273
:10092000EF92FF920F931F93CF93DF934C015B01E4
:100930006A01122FD02F7FB66894EE24E3F8F12CD1
:10094000C1E00D2F0C23212FA601B501C401B2DF98
:10095000CC0F81E0E81AF108A1F77FBEDF91CF91BB
:100960001F910F91FF90EF90DF90CF90BF90AF90CD
:100970009F908F907F900895DC01FB013FB78C9191
:10098000822B8C938081822B80838C91922F9095E7
:1009900089238C9385E08A95F1F700008081982364
:1009A00090839DE09A95F1F70000FA018081F0EACA
:1009B000FA95F1F73FBF282381E009F480E008951C
:1009C0008F929F92AF92BF92CF92DF92EF92FF925F
:1009D0000F931F93CF93DF935C016B017A01922EEB
:1009E0008FB608E010E0C1E0D0E0292DA701B601E4
:1009F000C501C2DF8C9FC0011124D82BCC0F015040
:100A0000110999F78FBE8D2FDF91CF911F910F9113
:100A1000FF90EF90DF90CF90BF90AF909F908F901E
:100A2000089587B3876087BB88B38F6088BB82E5F2
:100A30008DB91EB808958FB9779BFECF8FB10895F9
:100A400004D06894B111B5C0089598D088F09F572C
:100A500090F0B92F9927B751A0F0D1F0660F771F0A
:100A6000881F991F1AF0BA95C9F712C0B13081F0EA
:100A70009FD0B1E008959CC0672F782F8827B85F7A
:100A800039F0B93FCCF3869577956795B395D9F74B
:100A90003EF490958095709561957F4F8F4F9F4F55
:100AA0000895E89409C097FB3EF490958095709561
:100AB00061957F4F8F4F9F4F9923A9F0F92F96E9AA
:100AC000BB279395F695879577956795B795F1111F
:100AD000F8CFFAF4BB0F11F460FF1BC06F5F7F4FBC
:100AE0008F4F9F4F16C0882311F096E911C07723CE
:100AF00021F09EE8872F762F05C0662371F096E8D7
:100B0000862F70E060E02AF09A95660F771F881FA5
:100B1000DAF7880F9695879597F9089597F99F6763
:100B200080E870E060E008959FEF80EC0895002475
:100B30000A941616170618060906089500240A9442
:100B400012161306140605060895092E0394000CC8
:100B500011F4882352F0BB0F40F4BF2B11F460FF57
:100B600004C06F5F7F4F8F4F9F4F089557FD905880
:100B7000440F551F59F05F3F71F04795880F97FB61
:100B8000991F61F09F3F79F087950895121613061B
:100B90001406551FF2CF4695F1DF08C0161617064A
:100BA0001806991FF1CF869571056105089408957F
:100BB000E894BB2766277727CB0197F908950BD0D8
:100BC000C4CFB5DF28F0BADF18F0952309F0A6CF1F
:100BD000ABCF1124EECFCADFA0F3959FD1F3950FD1
:100BE00050E0551F629FF001729FBB27F00DB11DB1
:100BF000639FAA27F00DB11DAA1F649F6627B00D41
:100C0000A11D661F829F2227B00DA11D621F739F29
:100C1000B00DA11D621F839FA00D611D221F749F37
:100C20003327A00D611D231F849F600D211D822F7E
:100C3000762F6A2F11249F5750408AF0E1F08823C5
:100C40004AF0EE0FFF1FBB1F661F771F881F9150D2
:100C50005040A9F79E3F510570F060CFAACF5F3F8B
:100C6000ECF3983EDCF3869577956795B795F79505
:100C7000E7959F5FC1F7FE2B880F911D969587958D
:100C800097F90895A1E21A2EAA1BBB1BFD010DC006
:100C9000AA1FBB1FEE1FFF1FA217B307E407F5072C
:100CA00020F0A21BB30BE40BF50B661F771F881F08
:100CB000991F1A9469F760957095809590959B019E
:0C0CC000AC01BD01CF010895F894FFCFF6
:060CCC005348454C4B00AB
:00000001FF
